:101C000011241FBE04E00EBF0FEF0DBFA89584B7CF
:101C1000877F84BFE0E6F0E0808188618083108266
:101C2000CDB7DEB7C054D109DEBFCDBF1092C4001E
:101C30001092C00088E18093C10086E08093C200CA
:101C400000E085E085BD84B1836284B985B183629B
:101C500085B9299810E031E1832ECE0101966C01FF
:101C60006624639445E0742EA89B0DC0A89A1F5F5C
:101C700002FF06C0183339F488E080936000FFCF7C
:101C80001A3209F471D18091C00087FF84C090910D
:101C9000C600913509F4FDC0F8F4953409F4DEC0AE
:101CA00050F4913409F463C0923409F4A4C09B3118
:101CB00051F40460D1C09C3409F45EC030F480E07B
:101CC000963409F4E4C08FE350C09E3409F4DEC0BA
:101CD0009035C9F7046050C0953609F4BCC000F5D2
:101CE000943509F4CBC088F4933569F786E4D9D0EC
:101CF00084E4D7D088E7D5D082E4D3D08FE6D1D0A2
:101D00008FE6CFD084E7CDD0D4CF963509F4B8C0D4
:101D10009236C9F689E5C5D080E0C3D080E425C0FD
:101D2000903709F4B1C0D0F4973669F6C1D0182FB6
:101D3000BFD0582EBDD095B1936295B995B19D7D18
:101D400095B9863409F053C0111104C08FEF850D89
:101D50008034A0F088E080936000FFCF933709F4CF
:101D600087C080E0943709F0AECF9BD075C0A0D07B
:101D7000E82E9ED0FE2CE82E8DE0F7CF01FF06C0A6
:101D800007B600FCFDCF87BEE8950D7F652DC70126
:101D9000880F991F94D001FF06C007B600FC7BC0D6
:101DA00087BEE8950D7F00FF5FCF01FD5DCF80E02E
:101DB000A82FB0E0F601EA0FFB1F9081E2E0F0E00F
:101DC000EC0FFD1FEA0FFB1F2081FD01092E122ED3
:101DD00060925700E89511248E5F891548F3F5014C
:101DE00077BEE89502600E7F8DE05BD03DCF88E046
:101DF00080936000FFCF5CD0182F5AD0982E58D017
:101E000095B1936295B92898863409F55701AA0CC3
:101E1000BB1C11110AC08FEF890D803430F490FC87
:101E200004C0A1149CE1B90620F088E08093600012
:101E3000FFCFF6018091C00087FFFCCF8091C600E4
:101E400081938E2F8C198915A8F30160A4CF88E0A7
:101E500080936000FFCF4FD010E09DCF01FF06C000
:101E600007B600FCFDCF87BEE8950D7F7DD0F4CF8F
:101E70008AE017D083E915D08EE177CF19D07CCFD7
:101E800081E30FD086E371CF83E56FCF83E02BD062
:101E90006CCF82E0FCCF00FF86CF07B600FCFDCF01
:101EA0007FCF9091C00095FFFCCF8093C60008952E
:101EB0008091C00087FFFCCF8091C6000895FC018F
:101EC00080E0861301C0089595912091C00025FF00
:101ED000FCCF9093C6008F5FF4CF80E991E00000C3
:101EE0000197E9F7089599E0FF27E82F90935700AD
:101EF000C895802D089507B606FE06C007B600FCFB
:101F0000FDCF81E187BFE89590E080E050E063E09D
:101F100051111BC030E020E0F901E80FF91F449196
:101F20004F3F99F42F5F3F4F20343105A9F7805C74
:101F30009F4F8115FCE19F0759F707B606FE03C0C6
:101F400081E187BFE8958DE0ACCF07B600FCFDCFFF
:101F5000FC0167BFE89507B600FCFDCF51E0E7CF75
:101F600088E080936000FFCF8DE09BDF8DE099DFFC
:101F70008091C00085FFFCCF15B814B815BC109235
:0E1F8000C1001092C200F0E0E0E00995089563
:101F8E003E3E3E204A756E6F20464478626F6F74F7
:101F9E0020312E36392046447849435350202D2087
:101FAE00466C79616E64616E636520426F6F746C0E
:101FBE006F616465722053462043412039343133BA
:101FCE0033203E3E3E20416C6C207269676874730C
:0A1FDE002072657365727665640079
:0400000300001C00DD
:00000001FF
