:100000004DC067C066C065C064C063C062C061C0E7
:1000100060C05FC05EC07FC05CC05BC05AC059C0DA
:1000200058C057C056C055C054C053C052C051C02C
:1000300050C04FC02D2D3E204A756E6F204644782B
:10004000494353502056312E3836204156523931CB
:10005000302050726F6772616D6D6572202D204681
:100060006C79616E64616E63652032303236205384
:1000700046204341203934313333203C2D2D2D2D62
:100080003E20416C6C2072696768747320726573DE
:10009000657276656420203C2D2D000011241FBE62
:1000A000CFEFD4E0DEBFCDBF11E0A0E0B1E0ECE1E6
:1000B000F4E102C005900D92A836B107D9F721E00E
:1000C000A8E6B1E001C01D92A137B207E1F7D9D48B
:1000D000A3C996CF9091C00095FFFCCF8093C60036
:1000E00008958091C00087FFFCCF8091C6000895DD
:1000F0000F931F93CF938C01C0E0F801EC0FF11D1B
:100100008081811105C08AE0CF911F910F91E2CFCC
:10011000E1DFCF5FF2CF1F920F920FB60F92112443
:100120008F9380916A018F5F80936A010BB402FC08
:1001300012C00BB401FC0BC08EB38F5F8EBB8EB3AD
:100140008F3F49F41EBA88E080936000FFCF1EBA4B
:100150008BB58D7F8BBD8F910F900FBE0F901F9031
:100160001895DB018E3058F5E82FF0E0E554FF4F8D
:100170008BE48C9309940DC023C032C042C055C09B
:1001800065C076C087C098C0A5C0B6C0C6C0D6C07E
:10019000DEC081E311968C9311978DE212968C93B9
:1001A000129713968C9313978EE314968C9314974F
:1001B00084E315968C9315978DE416968C93089589
:1001C00082E311968C9311979DE212969C9312975D
:1001D00013969C9313979EE314969C931497E9CFE0
:1001E00083E311968C9311978DE212968C9312975C
:1001F00013968C9313978EE314968C93149781E344
:10020000D8CF94E311969C9311979DE212969C93FC
:10021000129795E313969C93139790E314969C93EF
:10022000149715969C931597C8CF95E311969C93B8
:1002300011972DE212962C93129722E313962C938A
:10024000139714969C93149790E3EBCF96E3119633
:100250009C9311979DE212969C93129791E31396AB
:100260009C93139792E314969C93149795E3D9CF9C
:1002700097E311969C9311979DE212969C93129787
:100280009EE313969C93139796E314969C9314976E
:1002900092E3C7CF98E311969C9311979DE2129633
:1002A0009C9312979EE313969C93139793E3149653
:1002B0009C93149791E3B5CF99E311969C93119772
:1002C0009DE212969C9312979EE313969C9313972C
:1002D00091E3C9CF91E311969C93119790E3129605
:1002E0009C9312979DE213969C9313979EE314960A
:1002F0009C93149798E395CF91E311969C93119753
:1003000012969C9312979DE213969C9313979EE3EB
:1003100014969C93149794E384CF91E311969C9345
:10032000119792E312969C9312972DE213962C93B9
:1003300013972EE314962C93149773CF91E3119691
:100340009C93119723E312962C931297EECF81E39F
:1003500011968C93119784E312968C9312979EE3D7
:1003600013969C93139714968C93149788E3159681
:100370008C93159722CFFB01DC0111968C918F7025
:10038000863038F4843078F4823040F080E490E0B5
:1003900007C08830D8F780E091E002C080E290E0AA
:1003A00091838083089580E890E0FACF80936B0179
:1003B000873008F5E82FF0E0E152FE4F099406C0BF
:1003C0000CC00FC010C011C012C013C080E58CBD9E
:1003D00081E08DBD8BB58B7F12C080E58CBD1DBCCF
:1003E000F9CF81E5F4CF81E5F9CF82E5F0CF83E560
:1003F000EECF83E5F3CF1CBC1DBC8BB584608BBDF9
:10040000089590916B01975041E050E002C0440F75
:10041000551F9A95E2F727E030E090E0682F70E0F2
:10042000E1E0F0E0822FDB01022E02C0B595A79536
:100430000A94E2F7A0FF18C02B9A1C9B06C0DF01AC
:1004400001C0AA0F8A95EAF79A2B80E08417150657
:100450006CF02D9A80E08417150674F02D982150C9
:10046000310900F7892F08952B98E7CFAAE2AA95C2
:10047000F1F700C08F5FEACFAAE2AA95F1F700C0BA
:100480008F5FE9CF8AE28A95F1F700C008950F9354
:100490001F93CF93DF938C010C5F1F4FC3E0F801D4
:1004A00082918F010BB402FE0CC0ABDFC1118D2F06
:1004B000C15028F4DF91CF911F910F910895D82F4B
:1004C000EECF8EBD0DB407FEFDCF8EB5EFCF0F93EF
:1004D0001F93CF93DF938C010C5F1F4FC3E0F80194
:1004E00082918F010BB402FE0DC08BDFC13009F089
:1004F0008D2FC15028F4DF91CF911F910F91089556
:10050000D82FEDCF8EBD0DB407FEFDCF8EB5EECF4B
:100510000F931F93CF93DF938C01C0E0F80181917B
:100520008F010BB402FE0EC06CDFC33009F08D2FBB
:10053000CF5FC43029F4DF91CF911F910F910895BF
:10054000D82FECCF8EBD0DB407FEFDCF8EB5EDCF0D
:10055000FC01349680E093E022912EBD0DB407FE9D
:10056000FDCF911101C08EB59150B0F70895FC01F7
:10057000349680E093E022912EBD0DB407FEFDCFAE
:10058000913009F48EB59150B0F70895FC0134967E
:1005900080E093E0933071F42CB52B7F2CBD229139
:1005A0002EBD0DB407FEFDCF911101C08EB5915047
:1005B00088F708959111F3CF2CB52460EFCFECE6C6
:1005C000F1E08CEA838383E58283CF0180CFECE680
:1005D000F1E08CEA838380E88283CF0178CFECE678
:1005E000F1E080EF838312821182CF0150CFECE6DD
:1005F000F1E080EF838312821182CF01A9CFECE674
:10060000F1E09283818380E28383CF0140CFECE6E7
:10061000F1E09283818380E28383CF0199CFECE67E
:10062000F1E090E3938312828183CF0130CFECE637
:10063000F1E098E3938312828183CF0128CFECE627
:10064000F1E080E5838312821182CF0120CFECE6B6
:10065000F1E088E5838388E082831182CF0117CFA0
:10066000ECE6F1E080E5838388E082831182CF01AC
:100670000ECFECE6F1E088E5838312821182CF0190
:1006800006CFECE6F1E098E0899F900111242870F4
:1006900020642383869590E0928381836083CF01D9
:1006A00016CFECE6F1E098E0899F900111242870C4
:1006B00020642383869590E0928381836083CF01B9
:1006C00056CF9091C00097FFFCCF98E0899F900192
:1006D00011242870206420936F01869590E09093F8
:1006E0006E0180936D018091C60080936C018CE651
:1006F00091E0EDCEECE6F1E02CE42383928381835C
:10070000CF01E5CEECE6F1E02CE4238392838183F4
:10071000CF012DCFCF93DF93CCE6D1E09A838983AD
:1007200088E28B83CE01B3DE90E29B83C82FD0E0BA
:10073000DC2FCC278CE691E0AADE9E01282BC90194
:10074000DF91CF910895CF93DF93CCE6D1E09A83E8
:10075000898388E28B83CE0119DF90E29B83C82FC7
:10076000D0E0DC2FCC278CE691E010DF9E01282B17
:10077000C901DF91CF910895ECE6F1E020EA2383EF
:1007800092838183CF0183CEDF92EF92FF920F930A
:100790001F93CF93DF93EC01463469F58B011695D7
:1007A0000795F12CE12C0BB402FC1AC0E016F106FF
:1007B000D1F0C7018C2B9D2BC6DFD92E8BDC8D2D64
:1007C00089DC8FEFE81AF80AF1CFC7018C2B9D2B3B
:1007D000A1DFD92E7FDC8D2D7DDC8FEFE81AF80AA2
:1007E000E016F10691F7DF91CF911F910F91FF90E5
:1007F000EF90DF9008958B01080F191F453499F78A
:100800000C171D0781F3CE01B7DF64DC2196F8CF0A
:10081000ECE6F1E020EC2383928381836083CF01B7
:1008200056CE20916A0190916A01921B981708F0A8
:1008300008959BB592609BBDF6CFCF93ECE6F1E0B7
:100840009CEA938390EA928311828083CF013FDEFA
:10085000C82F88E0E6DF8C2FCF910895CF93ECE688
:10086000F1E09CEA938398EA928311828083CF011E
:100870002EDEC82F88E0D5DF8C2FCF910895CF933F
:10088000ECE6F1E09CEA938394EA92831182808300
:10089000CF011DDEC82F88E0C4DF8C2FCF910895D3
:1008A000CF93ECE6F1E09CEA938390EE9283118281
:1008B0008083CF010CDEC82F88E0B3DF8C2FCF916F
:1008C0000895CF93DF93EC018881803539F48981D5
:1008D00081110BC0B4DEDF91CF91FCCB883569F478
:1008E0008981883031F4B3DEF6CF8830B1F5B8DED7
:1008F000F2CF811132C0BDDEEECF8C3A09F589818D
:10090000803A31F48FEAE6DB8B81DF91CF9195CF8E
:10091000883A31F48A81DEDB8B81DF91CF919ECFE3
:10092000843A31F48A81D6DB8B81DF91CF91A7CFD6
:10093000803E99F48A81CEDB8B81DF91CF91B0CF5D
:10094000883359F48A81811102C071DEC4CF8130AD
:10095000E1F38230D1F38330C1F3DF91CF91089579
:10096000A89584B7877F84BFE0E6F0E08081886146
:10097000808310820895F4CFAF92BF92CF92DF921E
:10098000EF92FF920F931F93CF93DF93CDB7DEB714
:1009900029970FB6F894DEBF0FBECDBF6C01CE0114
:1009A00001967C015E019AE0A90EB11C870180E0EE
:1009B00036DED8018C9381E032DEF801818382E05B
:1009C0002EDED80112968C930D5F1F4F0A151B0562
:1009D00071F7F60196012D5F3F4FD7018D917D0193
:1009E00012969C91129789130DC015969C918913AC
:1009F00009C08193E217F30781F781E0F601908146
:100A00009E3109F080E029960FB6F894DEBF0FBE44
:100A1000CDBFDF91CF911F910F91FF90EF90DF90AD
:100A2000CF90BF90AF90089595B1936095B9811123
:100A3000299861112898089590910001981701F163
:100A40008093000110926901109268018230A9F030
:100A500028F4882341F0813041F00895833041F03B
:100A6000843041F00895259A2D9860E081E0DCCF34
:100A700061E0FCCF1CBC259A2D9A61E080E0F7CFA5
:100A80000895CF93DF93CDB7DEB7C158D1400FB6ED
:100A9000F894DEBF0FBECDBF63DF87E6E1E0F1E093
:100AA000DE01AF5FBE4F01900D928A95E1F784B1F0
:100AB000877C84B93998419A1092C40082E080936F
:100AC000C00088E18093C10086E08093C20010E0FE
:100AD0001EBAE4E3F0E0DE01AF5FBE4F7E0128E91D
:100AE000E21A2EEFF20A84919D919817D1F11064C9
:100AF0008BE0809381008CE790E090938900809355
:100B0000880082E080936F00789484E085BD84B192
:100B1000836084B9259A2D9880E08EDF212C00E037
:100B2000912CC7010796C058DE4F99838883C0581F
:100B3000D140FE0131962F01A89B2BC0A89A8BB5FE
:100B400082608BBD80910001811119C08091690183
:100B50008F5F80936901843151F485B1836085B9D9
:100B600018C03196EA16FB0609F0BDCFC1CF8A370F
:100B700080F01092690160E081E056DF0AC08430A5
:100B800041F4809169018F5F8F3008F066C08093D7
:100B900069018091C00087FF22C0809100018430EC
:100BA00049F484B1877C84B93998259A2D98419A63
:100BB00080E042DF8091C600843509F47CC308F0F0
:100BC00093C0823409F43AC108F062C08E3209F44D
:100BD000B3C1813409F4AFC08B3109F09BC011FF60
:100BE00014C010FF12C0812F8695869583700BB4B8
:100BF00002FEAFC3813009F0A1C3F1DC80FF04C065
:100C000086B589198B3DC8F31D7F10FF95CF11FD67
:100C100093CF81E011DFF8940BB402FEB8C3420118
:100C2000B12CA12CC458DE4F28813981CC57D1403A
:100C30002A153B0509F0A2C3C6015CDD96B4789481
:100C4000812F869586958370823011F43C2C6D2C13
:100C500012601E7F8DE03EDA6FCF109269018091A5
:100C600068018F5F80936801843068F085B183608C
:100C700085B984B1877C84B93998259A2D98419A91
:100C800080E0DADE86CF80FD68CF61E080E075CF5E
:100C9000803509F42AC3833509F449C28C34D1F56F
:100CA00011FF11C0812F8695869583700BB402FECB
:100CB0002DC3813009F01FC392DC80FF04C086B5CC
:100CC00089198B3DC8F31EBA84B1836084B916FFBD
:100CD00032C310E484B1877C84B93998259A2D9861
:100CE000419A80E0A9DEB2C18736D9F160F482363C
:100CF00009F4DDC1853609F4EFC1863559F481E385
:100D0000E9D988E330C1833709F4FFC158F480374B
:100D100009F4E9C28091C00085FFFCCFEFE3E093C6
:100D2000C6005DCF843709F4BCC2863799F78DE4DD
:100D3000D1D9822D18C18091C00087FFFCCFC0900F
:100D4000C6008091C00087FFFCCF8091C600DC2CDC
:100D5000C82E8091C00085FFFCCF8DE08093C60037
:100D60003ECF8091C00087FFFCCF9091C60080915C
:100D7000C00087FFFCCF8091C6002091C00027FFF4
:100D8000FCCFA090C600C258DE4F99838883CE570F
:100D9000D14011FF11C0812F8695869583700BB4C9
:100DA00002FE32C0813031F51ADC80FF04C086B506
:100DB00089198B3DC8F31D7F82E03EDE14FBBB2406
:100DC000B0F814FF35C03BE081E0870D371508F41B
:100DD000872DECDA4A2DC258DE4F68817981CE57D3
:100DE000D140C601D1DC872DB11002C080917001C5
:100DF000DDDAF5CE832D962D02DC8F3FE1F686B548
:100E000089198B3DB8F3D7CF813041F4F0DB80FFF7
:100E1000D2CF86B589198B3DC8F3CDCF832D962DC2
:100E2000F6DB8F3F41F686B589198B3DB8F3C3CF0A
:100E300080917001873068F68F5FCBCF8091C000C2
:100E400087FFFCCF9091C6008091C00087FFFCCF48
:100E50008091C6002091C00027FFFCCFB090C60053
:100E6000C458DE4F99838883CC57D1408BEB8B0DD0
:100E7000823008F0B4CE81E0DFDDF6E4BF121CC0A2
:100E8000F894F201CF0184199509C458DE4F2881E6
:100E90003981CC57D1408217930730F078940023E2
:100EA00009F425C211609BCE8091C00087FFFCCF62
:100EB0008091C6008193E6CF35E4B31290CE809145
:100EC000C00087FFFCCFB090C600002309F40FC21A
:100ED000A0906A01C6010196C258DE4F99838883AB
:100EE000CE57D1406B2DC60193DC812F8695869518
:100EF0008370813089F473DB80FF05C080916A01C3
:100F00008A198930C0F38DE0E5D8C258DE4FC88019
:100F1000D980CE57D14063CE9FEFB91651F0C601AC
:100F20002BDC8B1581F380916A018A198930B8F323
:100F3000EACF89E076DCE7CFFE01E059FE4FCF0132
:100F400004965F012091C00027FFFCCF2091C600CE
:100F500021938E179F07B1F7011107C080E06CDD68
:100F60008FE3B8D88DE0B6D83ACEF50180818C3ABF
:100F700009F098C08181982F9B7F903A59F0883A68
:100F800049F021E030E0803E11F030E020E0232BFA
:100F900009F488C011FF12C0812F86958695837051
:100FA0000BB402FE62C0813009F054C018DB80FF30
:100FB00004C086B589198B3DC8F31D7F82E03CDDF6
:100FC000FEDA8335B1F5FBDA833599F5F8DA833546
:100FD00081F5CE018C589E4FCFDC882351F1CC583F
:100FE000DE4F9881C457D140C958DE4F8881C7571A
:100FF000D14098131EC0CB58DE4F9881C557D140C1
:10100000C858DE4F8881C857D140981312C081E07C
:1010100090E0CA58DE4F3881C657D140C758DE4FDE
:101020002881C957D140321711F090E080E0892B18
:1010300089F51F7D84B1877C84B93998419A1CBC9D
:10104000259A2D9880E0F8DC8FE344D88DE042D8D3
:1010500000E0C5CD832D962DD2DA8F3F09F0ADCFBC
:1010600086B589198B3DB0F3A8CF813041F4BFDA42
:1010700080FFA3CF86B589198B3DC8F39ECF832D02
:10108000962DC5DA8F3F09F098CF86B589198B3D2B
:10109000B0F393CF81E0D0DCC5013ADA1BD888E009
:1010A000C0DB60CF82E0C8DCC50132DA5ACFBE01B6
:1010B00066587E4FCE0189589E4F5DD989E50AD882
:1010C000C558DE4F8881CB57D14004D8C658DE4F73
:1010D0008881CA57D14047CF002309F408C1B09096
:1010E0006A0183E0A9DC73DA812F86958695837087
:1010F000813049F474DA80FF35CF80916A018B1911
:101100008A30C0F32FCF8AE0CBCFC758DE4F88811B
:10111000C957D140DFD7C858DE4F8881C857D14062
:10112000D9D7C958DE4F8881C757D1401CCF137D0E
:101130001D7F1E7FC958DE4F1882C757D140C8583F
:10114000DE4F1882C857D140C758DE4F1882C957A2
:10115000D14082E071DC84B18C6284B92C9A2D98E4
:10116000399A419A00E0419A81E05BDB419885E041
:1011700058DB00937001802F19D963E0A62EB12CA3
:101180001EDA833509F4B394AA94A110F9CFF3E0E1
:10119000BF1272C0CE018C589E4FEEDB882309F43B
:1011A0006BC0CC58DE4F8881C457D140C958DE4F40
:1011B0008883C757D140CB58DE4F8881C557D1406F
:1011C000C858DE4F8883C857D140CA58DE4F88813F
:1011D000C657D140C758DE4F8883C957D1401062E7
:1011E000B701802FBED782E027DC01E016FF16C0D2
:1011F00026E02093700186E0D9D886E4F701808349
:1012000087E581832DE222838EE3838382E48483D6
:1012100081E4858384E4868380E00EDC011132C0A2
:101220008DE4F701808323E4218335E532838DE269
:1012300083838EE384838EE48583268384B1877CD5
:1012400084B93998419A1CBC84B1836084B9259AC9
:101250002D9880E0F1DB50E3252E5701F5018191B7
:101260005F0138D7C058DE4F28813981C058D1403E
:101270002A153B0599F7B3CC0F5F0E3009F073CFF9
:1012800000E0B4CFACD9137F8E3F49F41460812FB6
:1012900086958695837040E3242E280EDECF186055
:1012A000F6CFBB24B3948B2D15D7B39430E8B3128B
:1012B000FACF80E058CE15D777247A94780E8DE057
:1012C000871578F0106170927001872D6FD816FF26
:1012D00049CE96E09093700186E068D836E0732E90
:1012E00041CE1F7E3FCE83E53ECE01113BCE80E056
:1012F000A3DB8FE338CE832D962D81D98F3F09F064
:10130000E2CC86B589198B3DB0F3DDCC813041F458
:101310006ED980FFD8CC86B589198B3DC8F3D3CC64
:10132000832D962D74D98F3F09F0CDCC86B58919C0
:101330008B3DB0F3C8CC10E084E0D4CC832D962D47
:101340005ED98F3F09F060CC86B589198B3DB0F32B
:101350005BCC813041F44BD980FF56CC86B58919DE
:101360008B3DC8F351CC832D962D51D98F3F09F079
:101370004BCC86B589198B3DB0F346CCF401619115
:101380004F018A2D7ED9FFEFAF1ABF0A4BCCC4584C
:10139000DE4F88819981CC57D14096958795982FBB
:1013A000F20180E020E438E42EBD0DB407FEFDCF4D
:1013B0001EBC0DB407FEFDCF8EBD0DB407FEFDCFE4
:1013C00040814EBD0DB407FEFDCF3EBD0DB407FEFE
:1013D000FDCF1EBC0DB407FEFDCF8EBD0DB407FEC4
:1013E000FDCF41814EBD0DB407FEFDCF8F5F32961C
:1013F0009813DACF8CE48EBD0DB407FEFDCFDEBCB2
:101400000DB407FEFDCFCEBC0DB407FEFDCF1EBC54
:0C1410000DB407FEFDCF12CCF894FFCF06
:10141C00FF2D2D3E204A756E6F204644784943536C
:10142C00502056312E38362041565239313020500A
:10143C00726F6772616D6D6572202D20466C7961DB
:10144C006E64616E63652032303236205346204321
:10145C0041203934313333203C2D2D2D2D3E20416C
:10146C006C6C207269676874732072657365727630
:08147C00656420203C2D2D00C9
:00000001FF
