:101C000011241FBE04E00EBF0FEF0DBFA89584B7CF
:101C1000877F84BFE0E6F0E0808188618083108266
:101C200011E0A0E0B1E0E6EFFFE102C005900D9207
:101C3000A830B107D9F7CDB7DEB7C854D109DEBF98
:101C4000CDBF1092C4001092C00088E18093C10003
:101C500086E08093C200512C88E0E0E0F1E0DE01F4
:101C6000AF5BBF4F01900D928A95E1F785E085BD8E
:101C700084B1836284B985B1836285B92998E12CE6
:101C8000F12C412C00E010E0A12CB12CCE010196EA
:101C90006C0135E0232EA89B22C0A89AEE2091F07B
:101CA000F3949BE39F15D8F480E09091C00095FFDA
:101CB000FCCF8093C6008F5F8038B9F788E08093AF
:101CC0006000FFCF4394FDE1F41548F415BC109279
:101CD000C1001092C20015B814B8F50109958091A1
:101CE000C00087FFE0C08091C600813509F4CDC0F7
:101CF000F0F4853409F4AAC050F4813409F446C0E4
:101D0000823409F476C08B3109F0C2C0C9C08C346A
:101D100009F4B7C028F4863409F0BAC080E0B6C030
:101D20008E3409F4B0C0803509F4ABC0B1C085363B
:101D300009F48AC0E0F4843509F49FC060F4833567
:101D400009F0A6C07E01F1E4EF0EF11C470137E077
:101D5000830E911C85C0863509F48AC0823609F04D
:101D600097C089E5D7D080E0D5D080E484C08037A3
:101D700009F485C018F48736F9F08AC0833709F46E
:101D800069C0843709F084C080E075C08091C000CC
:101D900087FFFCCF8091C6009091C00097FFFCCFD9
:101DA0000091C60010E0182B8091C00085FFFCCF89
:101DB0008DE08093C60076C08091C00087FFFCCF85
:101DC0008091C6008091C00087FFFCCF6091C60063
:101DD0008091C00087FFFCCF4091C60085B183622F
:101DE00085B985B18D7D85B9C801880F991FA0D0AF
:101DF00059C08091C00087FFFCCF8091C6008091C0
:101E0000C00087FFFCCF3090C6008091C00087FFE4
:101E1000FCCF8091C600F6018E2F8C19831540F4FB
:101E20008091C00087FFFCCF8091C6008193F4CFE2
:101E300085B1836285B985B18C7D85B93801660C21
:101E4000771C689450F82EC09ED02CC015B814B8DA
:101E5000ADD028C08AE05ED083E95CD08EE10BC0B3
:101E6000F70181917F0156D08E149F04C9F718C0E5
:101E700086E450D084E44ED015C053D002C083E530
:101E8000FACF8DE0F8CF83E001C082E074D0F3CFC9
:101E90008091C00085FFFCCFFFE3F093C60002C035
:101EA000EE24E394F12C51FE08C007B600FC05C0F7
:101EB00031E137BFE895E89451F850FEECCE51FC83
:101EC000EACE80E08315B8F4A82FB0E0F601EA0F5F
:101ED000FB1F9081E2E0F0E0EC0FFD1FEA0FFB1F1B
:101EE000208131E0FD01092E122E30935700E89534
:101EF00011248E5FE7CFF30127BEE895689451F86F
:101F0000E89450F88091C00085FFFCCF8DE080936D
:101F1000C600C1CE9091C00095FFFCCF8093C60053
:101F200008958091C00087FFFCCF8091C60008957E
:101F300007B600FE06C007B600FCFDCF21E127BFB3
:101F4000E895FC019E2F981B961750F4C895902D8C
:101F50002091C00025FFFCCF9093C6003196F2CFB0
:101F60008091C1008F7E8093C1008091C10080610B
:101F70008093C100089599E0FF27E82F90935700C0
:101F8000C895802D0895E0E0F0E083E007B600FCFE
:101F9000FDCF87BFE89507B600FCFDCFE05CFF4FA3
:101FA000E1159CE1F90791F78DE0B4CF8DE0B2DF48
:101FB0008DE0B0DF8091C00085FFFCCF15BC109292
:0E1FC000C1001092C200E0E0F0E00995089523
:101FCE00464478626F6F742076312E363120466C1F
:101FDE0079616E64616E63652053462043412039FA
:081FEE0034313333202D2D00A6
:081FF60053656C6650726F0028
:0400000300001C00DD
:00000001FF
