:1000000081C090C08FC08EC08DC08CC08BC08AC094
:1000100089C088C087C086C085C084C083C082C0B4
:1000200081C080C07FC07EC07DC07CC07BC07AC0E4
:1000300079C078C02D2D3E204A756E6F20464478D9
:10004000494353502056322E322053544B353030D2
:1000500076322050726F6772616D6D6572202D204F
:10006000466C79616E64616E636520323032362091
:100070005346204341203934313333203C2D2D2D3C
:100080002D3E20416C6C2072696768747320726524
:1000900073657276656420203C2D2D002D2D3E2049
:1000A0004A756E6F20464478494353502056322E8D
:1000B000322053544B35303076322050726F677295
:1000C000616D6D6572202D20466C79616E64616E84
:1000D0006365203230323620534620434120393484
:1000E000313333203C2D2D2D2D3E20416C6C207260
:1000F0006967687473207265736572766564202021
:100100003C2D2D0011241FBECFEFD4E0DEBFCDBFAC
:1001100022E0A0E0B1E001C01D92A033B207E1F7F8
:100120004EDAA6CA6DCF9091840040918500542F7D
:10013000492F2DE7829FC001112430918400209126
:100140008500232732272327241B350B281739073F
:10015000A0F308951CBC1DBC84B1877E84B984B112
:10016000836284B985B1836085B92D983998419AA5
:1001700010920F0110920D010895809313012D9894
:100180008730F8F4E82FF0E0E953FF4F099406C0F8
:100190000AC00DC00EC00FC010C011C080E58CBDDC
:1001A00081E08DBD089580E58CBD1DBC089581E57D
:1001B000F6CF81E5F9CF82E5F2CF83E5F0CF83E595
:1001C000F3CF1CBCF2CF209113012750330B91E0E9
:1001D00001C0990F2A95EAF727E030E040E0682F48
:1001E00070E0A1E0B0E05AE2822FFB01022E02C0D3
:1001F000F695E7950A94E2F7E0FF1CC02B9A1C9B4A
:1002000006C0FD0101C0EE0F8A95EAF74E2B892F3B
:10021000E52FEA95F1F78150D9F72D9A892FE52F2F
:10022000EA95F1F78150D9F72D9821503109E0F680
:10023000842F08952B98E3CF1F93CF93DF93162F2E
:10024000D42FC22F90911301973018F49CB59B7F47
:100250009CBD90911301973020F58EBD0DB407FE23
:10026000FDCF8EB5809113018730E8F41EBD0DB42B
:1002700007FEFDCF8EB5809113018730B8F4DEBD47
:100280000DB407FEFDCF8EB580911301873088F441
:10029000CEBD0DB407FEFDCF8EB5DF91CF911F917E
:1002A000089591DFDFCF812F8EDFE5CF8D2F8BDF9C
:1002B000EBCF8C2FDF91CF911F9185CFCF92DF9223
:1002C000FF920F931F93CF93DF9300D000D0CDB751
:1002D000DEB789836A834B832C8380911301873037
:1002E00018F48CB58B7F8CBDCE0101966C0110E0AB
:1002F000F12CF60181916F01909113019730C0F4B8
:100300008EBD0DB407FEFDCF8EB51F5F101301C06B
:10031000F82E143071F78F2D0F900F900F900F90D3
:10032000DF91CF911F910F91FF90DF90CF900895B3
:100330004ADFEBCFCF92DF92EF92FF921F93CF93E2
:10034000DF93EC017C016C0110E020E0412F60E0C4
:1003500080E372DFF60181936F011F5F1330A9F70D
:100360006E0110E020E0412F60E080E365DFF601E0
:1003700091916F01891315C01F5F133099F710E039
:1003800020E0412F60E080E357DFF70191917F018A
:10039000891307C01F5F133099F781E098819E3160
:1003A00009F080E0DF91CF911F91FF90EF90DF90F7
:1003B000CF9008952BE1209316012091C00025FFD6
:1003C000FCCF2BE12093C60030911701209116013C
:1003D0002327209316012091C00025FFFCCF3093E6
:1003E000C600209116012927209316012091C000F4
:1003F00025FFFCCF9093C60090911601982790930B
:1004000016019091C00095FFFCCF8093C6008091AB
:1004100016019EE08927809316018091C00085FF18
:10042000FCCF8EE08093C6000895CF93DF93D82F42
:10043000C62F82E090E0BEDF809116018D27809369
:1004400016018091C00085FFFCCFD093C60080913B
:1004500016018C27809316018091C00085FFFCCF88
:10046000C093C600809116019091C00095FFFCCF0B
:100470008093C600DF91CF9108951F93CF93DF93B0
:10048000182FD62FC42F83E090E094DF80911601BF
:100490008127809316018091C00085FFFCCF1093C7
:1004A000C600809116018D27809316018091C000AF
:1004B00085FFFCCFD093C600809116018C278093D6
:1004C00016018091C00085FFFCCFC093C6008091CB
:1004D00016019091C00095FFFCCF8093C600DF917C
:1004E000CF911F91089595B1936095B98111299885
:1004F00061112898089590912F02981701F1809327
:100500002F0210922E0210922D028230A9F028F4B0
:10051000882341F0813039F00895833039F08430F8
:1005200041F008952D9860E081E0DDCF2D9861E0E5
:10053000FBCF1CBC1DBC2D9A61E080E0F6CF089576
:10054000A89B33C081E085BB80912F02811112C02E
:1005500080912E028F5F80932E02843121F485B129
:10056000836085B908958A3700F110922E0260E009
:1005700081E0B9CF8430C9F480912E028F5F8F3033
:1005800018F480932E02089510922E0280912D026D
:100590008F5F80932D02843018F0DCDD80E0ABCFDC
:1005A00080FDDDCF61E080E0E4CF0895EF92FF921F
:1005B0000F931F93CF93DF938091C00087FF57C0A5
:1005C0008091C6008B31C1F780912F02843019F4DD
:1005D000C1DD80E090DF8091C00087FF4AC0C091FC
:1005E000C600C09317018091C00087FF44C0D0911E
:1005F000C6000D2F10E0102F002710931901009353
:1006000018018091C00087FF38C0F090C6000F2904
:1006100010931901009318018091C00087FF2FC02B
:100620008091C6008E30F1F5043191E01907E0F5B4
:10063000DC27CBE1CD27CF25C8278AE1E82E81E052
:10064000F82EC7018A5191408017910798F1809147
:10065000C00087FF3AC09091C60081E0C91322C054
:10066000DF91CF911F910F91FF90EF90089568DF78
:10067000A3CF66DFB0CF64DFB6CF62DFC2CF60DF6B
:10068000CBCF5EDF8091C00087FFFBCF8091C6009B
:1006900021960C171D07B1F78091C00087FF07C096
:1006A0008091C60080E0DCCFD0E0C0E0EBCF48DF37
:1006B000F3CF46DF8091C00087FFFBCF8091C6005B
:1006C000F70181937F01C827BCCF3ADFC0CF80916B
:1006D0000801882309F180910E018823F1F020E0C0
:1006E00040E060E080EFA8DD80FF14C090918400BE
:1006F00080918500892798278927209100013091D2
:100700000101821B930B209102013091030182179A
:10071000930728F310920801089580910901882316
:1007200009F1409104016091050120E080910601EA
:1007300083DD90910701891769F39091840080917E
:100740008500892798278927209100013091010190
:10075000821B930B209102013091030182179307B2
:1007600000F3D8CF40910001509101012091020186
:10077000309103019091840080918500892798270A
:100780008927841B950B82179307A0F3C3CF2F9261
:100790003F924F925F926F927F928F929F92AF9211
:1007A000BF92CF92DF92EF92FF920F931F93CF935E
:1007B000DF9300D000D0CDB7DEB7E0901801F09005
:1007C0001901E114F104C9F481E090E0F3DD8091B6
:1007D000160199EC8927809316018091C00085FF4E
:1007E000FCCF89EC8093C600809116019091C000E7
:1007F00095FFFCCF8093C600E7C510911A01EFEF7B
:10080000E10FED3108F0D9C6F0E0E85FFB4F099445
:100810001CC0ADC0E9C03FC141C143C1CBC6CDC6BC
:10082000CCC6CBC6CAC6C9C6C8C6C7C6C6C64DC1D1
:10083000C8C1E7C131C2A9C3A7C42BC585C5EBC5D3
:1008400083C5E9C5E8C5E7C543C68BE090E0B2DDE6
:100850008091160191E08927809316018091C00054
:1008600085FFFCCF81E08093C6008091C00085FFAA
:10087000FCCF1092C6008091160198E089278093E2
:1008800016018091C00085FFFCCF88E08093C600F0
:100890008091160191E48927809316018091C00010
:1008A00085FFFCCF81E48093C6008091160196E518
:1008B0008927809316018091C00085FFFCCF86E5D3
:1008C0008093C6008091160192E5892780931601D6
:1008D0008091C00085FFFCCF82E58093C6008091A7
:1008E000160199E48927809316018091C00085FF45
:1008F000FCCF89E48093C6008091160193E5892797
:10090000809316018091C00085FFFCCF83E5809322
:10091000C6008091160190E5892780931601809189
:10092000C00085FFFCCF80E58093C6008091160152
:100930009FE58927809316018091C00085FFFCCF39
:100940008FE58093C6008091160192E389278093FA
:1009500016018091C00085FFFCCF82E38093C60022
:10096000809116019091C00095FFFCCF43CF62E8C3
:1009700023E0E216F10428F180911B01883901F58A
:1009800080911C0180931001882389F08130E1F06F
:100990008230E1F08530E0F08A30E0F08431E0F040
:1009A0008832E0F08035E0F0803AE0F48CE080932B
:1009B000120191E09093110190910F019111DDDBF3
:1009C00060E082E032DD00C584E0F1CF86E0EFCF69
:1009D00087E0EDCF88E0EBCF89E0E9CF8AE0E7CF91
:1009E0008BE0E5CF8DE0E3CF83E090E0E3DC809126
:1009F000160193E08927809316018091C00085FF3E
:100A0000FCCF83E08093C6008091C00085FFFCCFBF
:100A10001092C6008091180190911901029708F474
:100A200036C0E0911B01E059EF3008F030C0F0E033
:100A3000E55EFA4F09942DC00DC01FC028C01FC02D
:100A40001EC025C024C01DC022C021C020C01CC0A3
:100A50001EC01FC082E09091160198279093160146
:100A60009091C00095FFFCCF8093C6008091160145
:100A70009091C00095FFFCCFBDCE84E1ECCF82E326
:100A8000EACF80911001E7CF80910F01E4CF80E0A1
:100A9000E2CF81E0E0CF60E084E094CF60EC85E0DD
:100AA00091CF15DE60EC85E0E816F10460F08091EE
:100AB0001D0190911E019827892798279093150171
:100AC0008093140160E086E07DCF9CE0E916F1049C
:100AD00008F473C010911101EDE0CE2E112319F02E
:100AE00010911201C12EF0901C01F11002C075E0AE
:100AF000F72EB0902001A090210184B18F6284B9BB
:100B0000249885B1836185B92D98399A419A1092BC
:100B1000080110920F0110920D0185B1836085B913
:100B2000C11608F449C0812F28DB419A81E0FBDA25
:100B30002D9841988F2DF7DA63E0D62EE12C0A2DFF
:100B4000209125014091240160912301809122018F
:100B5000B5DBB81201C0E394DA94D110F0CFE3E032
:100B6000EE1226C0CE010196E5DB882309F1109331
:100B70001301898180930A018A8180930B018B8103
:100B800080930C0181E080930D0180930F0120E0A0
:100B900040E060E080EF50DB91E08E3F09F090E0B4
:100BA00090930E0185B1836085B960E080E10ACF42
:100BB00080911101882319F0CDDA60ECF7CF1F5F27
:100BC000AFCF85DDF2E0EF16F10460F080911B01FC
:100BD0008111A9DA22E0E216F10421F080911C01D2
:100BE0008111A1DA1092080110920E0110920F01EA
:100BF00010920D01399A419884E07DDC60E081E13A
:100C0000E1CE60EC87E0E816F104B8F100911B0139
:100C1000D0901C015CDD83E06EDC209120014091CE
:100C20001F0160911E0180911D0106DB80918400EF
:100C3000E0908500FE2CE82E073008F407E09DE7E1
:100C4000099F80011124DD20D1F080910E018823BD
:100C5000B1F020E040E060E080EFEEDA80FF0CC011
:100C600090918400809185008927982789278E1983
:100C70009F098017910768F360E082E1A3CE90910D
:100C80008400809185008927982789278E199F09DC
:100C900080179107A0F3F0CFEAE0EE16F10408F414
:100CA00072C100911B0110911C0110270127102710
:100CB0000130F1E01F0708F066C1C8010A96E81686
:100CC000F90608F460C1B0901D01F0901E01E0909B
:100CD0001F0170902001A090210190902201C090EE
:100CE0001401D090150181E006DCF1DC2B2D217080
:100CF000522EB0FC44C08F2D873008F487E09DE76A
:100D0000899F5001112454E2652E51E0752E912CDB
:100D1000812C0815190569F40F5F1F4F169507956B
:100D2000C00ED11ED0921501C092140160E083E183
:100D300049CEC401969587958C0D9D1DF301219197
:100D40003F01482F692F852D88708E2975DA809193
:100D5000840020918500322F282F9091840080916B
:100D60008500892798278927821B930B8A159B0565
:100D7000A0F3FFEF8F1A9F0A28E0520ECACFB7FCEC
:100D80001CC024E2A22E21E0B22EF12CD12CC12CC9
:100D90000C151D0509F4D5C0F50121915F01A601CF
:100DA000569547958F2D887060E08E2945DAFFEFC4
:100DB000CF1ADF0A28E0F20EEBCF109209018091E2
:100DC0000E01811106C0E4E2F1E090E080E0B5FCA4
:100DD00016C080911301873070F184E2882E81E083
:100DE000982E612CB12CA12C0A151B0509F0BAC054
:100DF00020E04C2D6D2D872D1FDA89C00196081734
:100E0000190739F341919416C9F39C01369527953A
:100E10002C0D3D1D3093050120930401880F880F90
:100E2000880F88708A29809306014093070181E02A
:100E300080930901CECF980136952795822F9CB5D6
:100E40009B7F9CBDE4E2F1E02223B1F1AAE1B1E095
:100E5000E0E04E2D4860EEBC1A965C911A970DB4F6
:100E600007FEFDCF1EBC1B969C911B970DB407FE81
:100E7000FDCFEEBD0DB407FEFDCF5EBD0DB407FE88
:100E8000FDCF4EBD0DB407FEFDCF1EBC0DB407FE59
:100E9000FDCFEEBD0DB407FEFDCF9EBD0DB407FE28
:100EA000FDCF91E09E0F129689135AC0F0E0EE0F2D
:100EB000FF1FEA5DFE4F822F00FF15C0EEBC0DB490
:100EC00007FEFDCF9EB51EBC0DB407FEFDCF9EB53F
:100ED0008EBD0DB407FEFDCF8EB580818EBD0DB4E5
:100EE00007FEFDCF8EB57EBC0DB407FEFDCF8EB5DF
:100EF000DEBC0DB407FEFDCF8EB5CEBC0DB407FE33
:100F0000FDCF8EB51EBC0DB407FEFDCF8EB5909102
:100F10008400809185008927982789279093010173
:100F2000809300018F2D873008F487E0EDE78E9FD6
:100F3000C0011124909303018093020181E080930A
:100F400008010F5F1F4F169507958091140190912E
:100F50001501080F191F1093150100931401E6CE17
:100F6000E92F79CFF40121914F01A50156954795BD
:100F7000862D887060E08E295FD9FFEFAF1ABF0A17
:100F800028E0620E31CF60ECD2CE84E0E816F104A6
:100F900008F4F7C0E0901B01F0901C01FE24EF2440
:100FA000FE2410911D0193DB82E0A5DAC7010396B0
:100FB00001DA8091160194E18927809316018091CE
:100FC000C00085FFFCCF84E18093C6008091C00003
:100FD00085FFFCCF1092C6006701012F0860E2E098
:100FE000CE16D10408F046C0E0FE37C0409114018F
:100FF0006091150180911301873008F0BEC08CB557
:101000008B7F8CBD1EBD0DB407FEFDCF8EB56EBDB2
:101010000DB407FEFDCF8EB54EBD0DB407FEFDCF5E
:101020008EB58CB584608CBD1EBC0DB407FEFDCFA3
:101030008EB5909116019827909316019091C0005B
:1010400095FFFCCF8093C60080911401909115010B
:10105000019690931501809314018091C00085FF43
:10106000FCCF1092C600809116019091C00095FFB0
:10107000FCCFC0CB40911401609115018091130108
:10108000873008F059C08CB58B7F8CBD1EBD0DB468
:1010900007FEFDCF8EB56EBD0DB407FEFDCF8EB53C
:1010A0004EBD0DB407FEFDCF8EB58CB584608CBDF2
:1010B0001EBC0DB407FEFDCF9EB580911601892799
:1010C000809316018091C00085FFFCCF9093C600ED
:1010D000909114018CB58B7F8CBD0EBD0DB407FEB5
:1010E000FDCF8EB56EBD0DB407FEFDCF8EB59EBD96
:1010F0000DB407FEFDCF8EB58CB584608CBD1EBCD3
:101100000DB407FEFDCF9EB580911601892780930F
:1011100016018091C00085FFFCCF9093C60080919E
:10112000140190911501019690931501809314017B
:1011300092E0C91AD10853CF20E0812F7DD8909139
:1011400016019827909316019091C00095FFFCCF4F
:101150008093C600409114016091150120E0802F1A
:101160006BD8909116019827909316019091C0002A
:1011700095FFFCCF8093C600D2CF20E0812F5CD8B2
:1011800058CF60EC84E11ECCFAE0EF16F10408F4CD
:101190007EC0A0901B01B0901C01BA24AB24BA24DD
:1011A00021E0A216B20608F072C0C5010A96E81640
:1011B000F90608F46CC08BDA81E09DD990911D018D
:1011C00070901F01609021015090220140902301F6
:1011D00080911E01873008F487E0EDE78E9F600163
:1011E00011242AE1E22E21E0F22E94729C83C701A1
:1011F0008A5191408A159B0518F060E085E1E2CBA9
:101200000091140110911501302E212EF701228535
:10121000402F612F872D10D8809184008090850009
:10122000982C882EFC81FF2329F1F701828558161E
:1012300009F14816F9F020E0432D622D862DFCD7E8
:10124000F7019285891761F0909184008091850063
:10125000892798278927881999098C159D0558F39E
:101260000F5F1F4F1093150100931401FFEFEF1A4A
:10127000FF0ABDCF9091840080918500892798272F
:101280008927881999098C159D05A0F3E9CF60EC91
:10129000B5CF24E0E216F10408F453C000911B011D
:1012A00010911C01102701271027D0901D010FDA83
:1012B00082E021D9C80103967DD88091160196E17C
:1012C0008927809316018091C00085FFFCCF86E1BD
:1012D0008093C6008091C00085FFFCCF1092C600AD
:1012E000F12CE12C0E151F0569F48091C00085FFDB
:1012F000FCCF1092C600809116019091C00095FF1E
:10130000FCCF78CA409114016091150120E08D2D29
:1013100093D7909116019827909316019091C00051
:1013200095FFFCCF8093C600809114019091150128
:10133000019690931501809314018FEFE81AF80A33
:10134000D1CF60EC86E13ECB95E0E916F10408F4DC
:10135000BCC0BDD982E0CFD880910F01882359F15C
:1013600080910D01882339F193E0F92E03E020E00C
:1013700040E063E58CEAA2D78335E9F4FA94F110F2
:10138000F5CFCE010196D6D78823A9F09981809117
:101390000A01981310C09A8180910B0198130BC019
:1013A00081E090E03B8120910C01321711F090E038
:1013B00080E0892B01F510920D01CCD680E09BD8FE
:1013C00040EC60EC812F59D80F900F900F900F9048
:1013D000DF91CF911F910F91FF90EF90DF90CF9011
:1013E000BF90AF909F908F907F906F905F904F9045
:1013F0003F902F90089581E07ED820911E0140916A
:101400001D0160911C0180911B0116D788E08BD6CD
:1014100040E060E0D7CFE6E0EE16F10408F455C0F6
:10142000B0901B0154D982E066D8809113018730B7
:1014300018F48CB58B7F8CBD8CE1C82E81E0D82E42
:10144000E12CF12CF60181916F01909113019730FD
:10145000C8F58EBD0DB407FEFDCF0EB5F394BF10D9
:101460000E2DF4E0FF122CC084E090E0A3D7809111
:1014700016018127809316018091C00085FFFCCF63
:101480001093C6008091C00085FFFCCF1092C6006B
:10149000809116018027809316018091C00085FFFE
:1014A000FCCF0093C6008091C00085FFFCCF109256
:1014B000C600809116019091C00095FFFCCF9AC99B
:1014C000E02EC0CF80D6082FC9CF60EC812F7ACA1A
:1014D00024E0E216F10408F46AC0E0901B01F12C4C
:1014E000C0901D01D12C00911C0110E05601A00EEE
:1014F000B11E4701EA14FB0408F44501E8D882E074
:10150000FAD7C801039656D7809116019DE1892725
:10151000809316018091C00085FFFCCF8DE1809300
:10152000C6008091C00085FFFCCF1092C60080915C
:101530001301873018F48CB58B7F8CBD10E000E070
:1015400024C080E00E151F0520F4F801E65EFE4F72
:10155000848190911301973040F58EBD0DB407FE44
:10156000FDCF8EB50C151D0570F00A151B0558F43E
:10157000909116019827909316019091C00095FFC5
:10158000FCCF8093C6000F5F1F4F80169106C9F6EF
:101590008091C00085FFFCCF1092C600809116019B
:1015A0009091C00095FFFCCF25C90DD6DBCF60EC34
:1015B0008DE108CA60EC87E005CA69EC87CFA89581
:1015C00084B7877F84BF88E18093600010926000B9
:1015D0001092800093E09093810010928500109209
:1015E000840094E095BD91E095BB1092C5001092E7
:1015F000C40092E09093C0008093C10086E0809385
:10160000C2001092150110921401809313011092E0
:101610001201109211011092100110920F011092FC
:101620000E0110920D01109208018FEF80932F028E
:1016300091D580E060D7C0EBB9D7882311F0A7D847
:10164000FBCF81E090E0B6D6809116018C27809385
:1016500016018091C00085FFFCCFC093C600809129
:1016600016019091C00095FFFCCF8093C600E4CF97
:04167000F894FFCF1C
:00000001FF
