:1000000081C090C08FC08EC08DC08CC08BC08AC094
:1000100089C088C087C086C085C084C083C082C0B4
:1000200081C080C07FC07EC07DC07CC07BC07AC0E4
:1000300079C078C02D2D3E204A756E6F20464478D9
:10004000494353502056332E322053544B353030D1
:1000500076312050726F6772616D6D6572202D2050
:10006000466C79616E64616E636520323032362091
:100070005346204341203934313333203C2D2D2D3C
:100080002D3E20416C6C2072696768747320726524
:1000900073657276656420203C2D2D002D2D3E2049
:1000A0004A756E6F20464478494353502056332E8C
:1000B000322053544B35303076312050726F677296
:1000C000616D6D6572202D20466C79616E64616E84
:1000D0006365203230323620534620434120393484
:1000E000313333203C2D2D2D2D3E20416C6C207260
:1000F0006967687473207265736572766564202021
:100100003C2D2D0011241FBECFEFD4E0DEBFCDBFAC
:1001100022E0A0E0B1E001C01D92AC31B207E1F7EE
:10012000F2DB67CC6DCF9091840040918500542F15
:10013000492F2DE7829FC001112430918400209126
:100140008500232732272327241B350B281739073F
:10015000A0F308951CBC1DBC84B1877E84B984B112
:10016000836284B985B1836085B92D983998419AA5
:1001700010920D0110920B010895809311012D989A
:100180008730F8F4E82FF0E0E953FF4F099406C0F8
:100190000AC00DC00EC00FC010C011C080E58CBDDC
:1001A00081E08DBD089580E58CBD1DBC089581E57D
:1001B000F6CF81E5F9CF82E5F2CF83E5F0CF83E595
:1001C000F3CF1CBCF2CF209111012750330B91E0EB
:1001D00001C0990F2A95EAF727E030E040E0682F48
:1001E00070E0A1E0B0E05AE2822FFB01022E02C0D3
:1001F000F695E7950A94E2F7E0FF1CC02B9A1C9B4A
:1002000006C0FD0101C0EE0F8A95EAF74E2B892F3B
:10021000E52FEA95F1F78150D9F72D9A892FE52F2F
:10022000EA95F1F78150D9F72D9821503109E0F680
:10023000842F08952B98E3CF1F93CF93DF93162F2E
:10024000D42FC22F90911101973018F49CB59B7F49
:100250009CBD90911101973020F58EBD0DB407FE25
:10026000FDCF8EB5809111018730E8F41EBD0DB42D
:1002700007FEFDCF8EB5809111018730B8F4DEBD49
:100280000DB407FEFDCF8EB580911101873088F443
:10029000CEBD0DB407FEFDCF8EB5DF91CF911F917E
:1002A000089591DFDFCF812F8EDFE5CF8D2F8BDF9C
:1002B000EBCF8C2FDF91CF911F9185CFCF92DF9223
:1002C000EF92FF921F93CF93DF93EC017C016C01BF
:1002D00010E020E0412F60E080E3AEDFF601819383
:1002E0006F011F5F1330A9F76E0110E020E0412F6E
:1002F00060E080E3A1DFF60191916F01891315C0E1
:100300001F5F133099F710E020E0412F60E080E399
:1003100093DFF70191917F01891307C01F5F1330AD
:1003200099F781E098819E3109F080E0DF91CF91CB
:100330001F91FF90EF90DF90CF90089595B193605B
:1003400095B98111299861112898089590911B02FF
:10035000981701F180931B0210921A021092190251
:100360008230A9F028F4882341F0813039F00895D3
:10037000833039F0843041F008952D9860E081E0B9
:10038000DDCF2D9861E0FBCF1CBC1DBC2D9A61E038
:1003900080E0F6CF0895A89B33C081E085BB8091B3
:1003A0001B02811112C080911A028F5F80931A0282
:1003B000843121F485B1836085B908958A3700F1CD
:1003C00010921A0260E081E0B9CF8430C9F48091C4
:1003D0001A028F5F8F3018F480931A0208951092DA
:1003E0001A02809119028F5F80931902843018F0ED
:1003F000B1DE80E0ABCF80FDDDCF61E080E0E4CF17
:100400000895809106018823E9F080910C018823EA
:10041000D1F020E040E060E080EF0EDF80FF10C010
:1004200090918400809185008927982789272091C1
:10043000000130910101821B930B8B36934048F3EE
:10044000109206010895809107018823E9F04091F8
:1004500002016091030120E080910401EDDE9091A2
:100460000501891769F3909184008091850089279F
:10047000982789272091000130910101821B930B5D
:100480008B36934020F3DCCF2091000130910101A5
:100490009091840080918500892798278927821B65
:1004A000930B8B369340A0F3CBCFCF93C82F811102
:1004B00024C08091C00087FF27C08091C600803291
:1004C00031F59FDF82E042DF20E04C2F60E088E3DF
:1004D000B3DE9091C00095FFFCCF94E19093C600ED
:1004E0009091C00095FFFCCF8093C6008091C00022
:1004F00085FFFCCF80E118C04EDF8091C00087FFF0
:10050000FBCFC091C600D5CF46DFD3CF44DF80916B
:10051000C00087FFFBCF8091C6008032C1F7809179
:10052000C00085FFFCCF85E18093C600CF91089580
:100530008091C00087FF13C08091C600803291F483
:100540008091C00085FFFCCF84E18093C60080913C
:10055000C00085FFFCCF82E18093C60008951BDFB9
:10056000E7CF19DF8091C00087FFFBCF8091C600E5
:100570008032C1F78091C00085FFFCCF85E1ECCFD0
:10058000DF92EF92FF920F931F93CF93DF9300D0F0
:100590001F92CDB7DEB7853409F4FCC1C0F58034B5
:1005A00009F471C140F4803309F47BC0813309F44C
:1005B0009DC0BEDF3AC1813409F4ECC010E0823442
:1005C000C1F78091C00087FFC2C18091C60018307A
:1005D00009F0BFC1809316011F5F143191F780911C
:1005E000C00087FFC6C18091C600803209F0C4C137
:1005F00081E0809312018091C00085FFFCCF84E1EF
:100600008093C6008091C00085FFFCCF5DC082351D
:1006100009F4E5C238F5803509F4F3C1813549F6AE
:100620008091C00087FFCAC28091C600803209F065
:10063000C8C2E7DE1092060110920C0110920D0163
:1006400010920B01399A419884E080DE8091C000BD
:1006500085FFFCCF84E18093C6008091C00085FFB8
:10066000FCCF32C0853509F420C3863509F454C364
:10067000833509F09ECF8091C00087FF05C380912C
:10068000C600803209F003C38091C00085FFFCCF13
:1006900084E18093C6008091C00085FFFCCF14C028
:1006A0007ADE8091C00087FFFBCF8091C600803248
:1006B00071F48091C00085FFFCCF84E18093C60077
:1006C0008091C00085FFFCCF80E1ADC064DE8091E9
:1006D000C00087FFFBCF8091C6008032C1F78091B8
:1006E000C00085FFFCCF85E19EC055DE8091C00033
:1006F00087FFFBCF8091C6008032F1F58091C0006A
:1007000085FFFCCF84E18093C6008091C00085FF07
:10071000FCCF81E48093C6008091C00085FFFCCFB0
:1007200086E58093C6008091C00085FFFCCF82E5FE
:100730008093C6008091C00085FFFCCF80E280934B
:10074000C6008091C00085FFFCCF83E58093C60082
:100750008091C00085FFFCCF84E58093C600809126
:10076000C00085FFFCCF8BE48093C6008091C00061
:1007700085FFFCCFA9CF0FDE8091C00087FFFBCFA4
:100780008091C6008032C1F78091C00085FFFCCF08
:10079000AACF01DE8091C00087FFFBCF1091C60079
:1007A0008091C00087FF27C08091C600803209F089
:1007B0005AC0E0E8E10FE93108F04FC0F0E0EE5137
:1007C000FC4F09944CC019C03BC03DC03FC03EC067
:1007D0003AC039C042C03DC040C03FC03EC03DC02D
:1007E0003CC03BC030C03BC038C037C036C035C04D
:1007F00034C033C002C0CFDDD3CF81E013E090918D
:10080000C00095FFFCCF94E19093C6009091C0008A
:1008100095FFFCCF1093C600811132C081E1909109
:10082000C00095FFFCCF8093C6000F900F900F90F3
:10083000DF91CF911F910F91FF90EF90DF9008957E
:1008400081E012E0DCCF81E010E0D9CF81E012E35B
:10085000D6CF10910E0181E0D2CF80E0D0CF81E0E1
:1008600011E0CDCF98DD8091C00087FFFBCF809154
:10087000C6008032C1F78091C00085FFFCCF33CF26
:1008800080E1CDCF88DD8091C00087FFFBCF009154
:10089000C6008091C00087FF38C01091C6008091CB
:1008A000C00087FF34C08091C600803299F50938B6
:1008B00001F510930E01112389F01230C0F11230AE
:1008C000C1F11530C0F11830C0F11031C0F11E3146
:1008D000C0F11C33C0F11737C0F11AE010931001BA
:1008E00081E080930F0180910D01882311F0812F09
:1008F00044DC8091C00085FFFCCF84E18093C6007A
:100900008091C00085FFFCCFDFCE45DDC2CF43DD47
:10091000C6CF41DD8091C00087FFFBCF8091C6002C
:100920008032C1F78091C00085FFFCCFDCCE12E0A1
:10093000D5CF13E0D3CF14E0D1CF15E0CFCF16E061
:10094000CDCF17E0CBCF18E0C9CF19E0C7CF23DD5B
:1009500038CE193019F4809315013ECE1A3019F4AF
:100960008093140139CE1B3009F036CE80931301E9
:1009700033CE11DD34CE0FDD8091C00087FFFBCF79
:100980008091C6008032C1F78091C00085FFFCCF06
:10099000AACE01DD8091C00087FFFBCF0091C60089
:1009A00011E01017A8F08091C00087FF19C0809156
:1009B000C6008032C1F48091C00085FFFCCF84E185
:1009C0008093C6008091C00085FFFCCF7DCEE3DC24
:1009D0008091C00087FFFBCF8091C6001F5FE1CFF1
:1009E000DADCE1CFD8DC8091C00087FFFBCF8091BB
:1009F000C6008032C1F78091C00085FFFCCF73CE66
:100A0000CADC8091C00087FFFBCF8091C600803296
:100A100009F09AC080911201882309F4A2C01091B4
:100A20000F012DE0E22E112319F010911001E12E9B
:100A300084B18F6284B9249885B1836185B92D987A
:100A4000399A419A1092060110920D0110920B01F1
:100A500085B1836085B9E11608F4A1C0812F8DDBD3
:100A6000419A81E060DB2D98419885E05CDB93E062
:100A7000F92E00E080911101873018F48CB58B7F3E
:100A80008CBD80911101873008F078C08CEA8EBD52
:100A90000DB407FEFDCF8EB580911101873008F0AF
:100AA00070C083E58EBD0DB407FEFDCF8EB580917D
:100AB0001101873008F068C01EBC0DB407FEFDCFE1
:100AC000DEB480911101873008F062C01EBC0DB405
:100AD00007FEFDCF8EB523E5D21201C00F5FFA9459
:100AE000F110C8CF033009F056C0CE010196E6DB05
:100AF000882309F450C08981809308018A818093FA
:100B000009018B8180930A0181E080930B0180931E
:100B10000D0120E040E060E080EF8EDB91E08E3F51
:100B200009F090E090930C0185B1836085B98091C4
:100B3000C00085FFFCCF84E18093C6008091C00097
:100B400085FFFCCFC1CD27DC8091C00087FFFBCFA4
:100B50008091C6008032C1F78091C00085FFFCCF34
:100B6000C2CD8091C00085FFFCCF84E18093C60098
:100B70008091C00085FFFCCF83E155CE8CEA23DB5A
:100B80008BCF83E520DB93CF80E01DDBD82E99CF80
:100B900080E019DBA0CF80910F01882369F0DADAB9
:100BA0008091C00085FFFCCF84E18093C6008091D6
:100BB000C00085FFFCCFE0CF1F5F4DCFECDB30CD19
:100BC000EADB8091C00087FFFBCF8091C6008032B6
:100BD000C1F78091C00085FFFCCF85CDDCDB809123
:100BE000C00087FFFBCF8091C600803209F03FC074
:100BF00008DC83E0ABDB20E040E060E88CEA1CDB53
:100C00008091840000918500102F082F80910C01A5
:100C10008823F9F020E040E060E080EF0DDB80FF0A
:100C20000CC090918400809185008927982789279E
:100C3000801B910B8C3D954068F38091C00085FF2F
:100C4000FCCF84E18093C6008091C00085FFFCCF7B
:100C50003BCD909184008091850089279827892732
:100C6000801B910B823E9440A0F3E7CF94DB8091F0
:100C7000C00087FFFBCF8091C6008032C1F7809112
:100C8000C00085FFFCCF2FCD86DBF5CC84DB8091C7
:100C9000C00087FFFBCF8091C6008032C1F78091F2
:100CA000C00085FFFCCF1FCD76DB8091C00087FFA1
:100CB000FBCF0091C6008091C00087FF1AC0109141
:100CC000C6008091C00087FF16C08091C6008032A8
:100CD000A9F410931801009317018091C00085FFBB
:100CE000FCCF84E18093C6008091C00085FFFCCFDB
:100CF000EBCC51DBE0CF4FDBE4CF4DDB8091C0008C
:100D000087FFFBCF8091C6008032C1F78091C00081
:100D100085FFFCCFE8CC3FDB8091C00087FFFBCF95
:100D2000E090C6008091C00087FF34C01091C600DB
:100D30008091C00087FF30C00091C6008091C00044
:100D400087FF2CC0F090C6008091C00087FF28C0AC
:100D50008091C600803239F554DB8CEAE812CAC0B3
:100D6000812F8B7F803A61F1183A51F181E090E058
:100D7000103E11F090E080E0892B11F5103809F059
:100D8000B9C083E0E3DA2F2D402F60E88CEA54DA13
:100D9000182F9EC000DBC6CFFEDACACFFCDACECF5A
:100DA000FADAD2CFF8DA8091C00087FFFBCF8091CA
:100DB000C6008032C1F78091C00085FFFCCF93CC84
:100DC00082E0C4DA80910D01882309F458C0809133
:100DD0000B01882309F453C083E0E82E80911101B0
:100DE000873018F48CB58B7F8CBD809111018730D2
:100DF00008F057C08CEA8EBD0DB407FEFDCF8EB54E
:100E000080911101873008F04FC083E58EBD0DB48D
:100E100007FEFDCF8EB580911101873008F047C0E5
:100E20001EBC0DB407FEFDCFDEB4809111018730EA
:100E300008F041C01EBC0DB407FEFDCF8EB523E502
:100E4000D2121DC0EA94E110C9CFCE01019636DA64
:100E50008823A9F0998180910801981310C09A8184
:100E60008091090198130BC081E090E03B812091B3
:100E70000A01321711F090E080E0892BF9F410920A
:100E80000B0168D980E062DA8091C00085FFFCCF59
:100E900084E18093C6008091C00085FFFCCF81E192
:100EA000C2CC8CEA90D9ACCF83E58DD9B4CF80E0A9
:100EB0008AD9D82EBACF80E086D9C1CF81E046DA70
:100EC0002F2D402F612F8CEAB7D9182F88E02BD90E
:100ED0008091C00085FFFCCF84E18093C6008091A3
:100EE000C00085FFFCCF1093C6008091C00085FF35
:100EF000FCCFEACB82E02ADA2F2D402F612F8E2DF6
:100F000046CF0F931F93CF93DF938437B1F058F4FC
:100F1000803709F430C1813709F4B4C1DF91CF9132
:100F20001F910F9105CB863709F42EC208F4E4C156
:100F30008837A1F781E029C22EDA8091C00087FFAF
:100F4000FBCFD091C6008091C00087FF5EC0C091EA
:100F5000C6008091C00087FF5AC01091C6008091E2
:100F6000C00087FF56C08091C600803209F054C08F
:100F700048DA8091C00085FFFCCF84E18093C600F1
:100F8000163409F0C9C082E0E1D98E0102301105A2
:100F900008F050C0C0FF33C04091170160911801A4
:100FA00080911101873008F0B3C08CB58B7F8CBD68
:100FB00080E28EBD0DB407FEFDCF8EB56EBD0DB4C3
:100FC00007FEFDCF8EB54EBD0DB407FEFDCF8EB52D
:100FD0008CB584608CBD1EBC0DB407FEFDCF8EB5F4
:100FE0009091C00095FFFCCF8093C60080911701BF
:100FF00090911801019690931801809317018091A8
:10100000C00085FFFCCF80E1AEC0C5D99CCFC3D95D
:10101000A0CFC1D9A4CFBFD98091C00087FFFBCF9B
:101020008091C6008032C1F78091C00085FFFCCF5F
:1010300085E199C0409117016091180180911101DB
:10104000873008F050C08CB58B7F8CBD80E28EBDA0
:101050000DB407FEFDCF8EB56EBD0DB407FEFDCFFE
:101060008EB54EBD0DB407FEFDCF8EB58CB5846038
:101070008CBD1EBC0DB407FEFDCF8EB59091C00097
:1010800095FFFCCF8093C600909117018CB58B7FA4
:101090008CBD88E28EBD0DB407FEFDCF8EB56EBD52
:1010A0000DB407FEFDCF8EB59EBD0DB407FEFDCF7E
:1010B0008EB58CB584608CBD1EBC0DB407FEFDCF13
:1010C0008EB59091C00095FFFCCF8093C6008091B3
:1010D00017019091180101969093180180931701C0
:1010E0000250110953CF20E080E2A6D89091C000B1
:1010F00095FFFCCF8093C6004091170160911801C5
:1011000020E088E299D89091C00095FFFCCFDDCF18
:1011100020E080E291D864CF153401F582E016D941
:10112000219728F48091C00085FFFCCF6CCF4091BF
:1011300017016091180120E080EA7ED89091C000EC
:1011400095FFFCCF8093C600809117019091180104
:1011500001969093180180931701E2CF8091C0000F
:1011600085FFFCCF81E18093C600DF91CF911F9175
:101170000F91089510D98091C00087FFFBCF109187
:10118000C6001032C1F43DD982E0E0D8D0911701F9
:10119000C0911801809111018730D0F020E04D2FCF
:1011A0006C2F80E249D8182F20E04D2F6C2F88E259
:1011B00043D845C0F0D88091C00087FFFBCF809115
:1011C000C6008032C1F78091C00085FFFCCF30CFD0
:1011D0008CB58B7F8CBD1EBD0DB407FEFDCF8EB5CB
:1011E000CEBD0DB407FEFDCF8EB5DEBD0DB407FE3E
:1011F000FDCF8EB58CB584608CBD1EBC0DB407FED2
:10120000FDCF1EB5909117018CB58B7F8CBD88E208
:101210008EBD0DB407FEFDCF8EB5CEBD0DB407FE5D
:10122000FDCF8EB59EBD0DB407FEFDCF8EB58CB53E
:1012300084608CBD1EBC0DB407FEFDCF8EB5209121
:101240001701309118012F5F3F4F30931801209301
:1012500017019091C00095FFFCCF94E19093C600D8
:101260009091C00095FFFCCF1093C6009091C000F4
:1012700095FFFCCF8093C6008091C00085FFFCCF16
:10128000C2CE89D88091C00087FFFBCF8091C60075
:10129000803221F5B6D882E059D8C0911701D0919B
:1012A000180120E04C2F6D2F80EAC6D72196D093ED
:1012B0001801C09317019091C00095FFFCCF94E1F5
:1012C0009093C6009091C00095FFFCCF8093C6001C
:1012D0008091C00085FFFCCF96CE5DD88091C00084
:1012E00087FFFBCF8091C6008032C1F78091C0009C
:1012F00085FFFCCF9DCE4FD88091C00087FFFBCFEC
:101300008091C600803299F57CD882E01FD820E019
:1013100040E060E080E390D7D82F20E041E060E03B
:1013200080E38AD7C82F20E042E060E080E384D7E2
:101330009091C00095FFFCCF94E19093C6009091EE
:10134000C00095FFFCCFD093C6009091C00095FFE0
:10135000FCCFC093C6009091C00095FFFCCF809356
:10136000C6008091C00085FFFCCF4DCE14D880917F
:10137000C00087FFFBCF8091C6008032C1F780910B
:10138000C00085FFFCCF54CE80E0DF91CF911F914C
:101390000F918BC89F92AF92BF92CF92DF92EF9244
:1013A000FF920F931F93CF93DF93813609F452C2BC
:1013B000843609F450C0803609F099C28091C0008B
:1013C00087FF33C20091C6008091C00087FF2FC203
:1013D0001091C6008091C00087FF2BC28091C6008B
:1013E000803209F029C20DD881E0B0D7C091170131
:1013F000D0911801202F4C2F6D2F80E41DD7212F65
:101400004C2F6D2F88E418D720E04C2F6D2F8CE4E3
:1014100013D7909184008091850089279827892788
:1014200090930101809300011092070181E0809365
:1014300006012196D0931801C09317018091C00036
:1014400085FFFCCF84E18093C6008091C00085FFBA
:10145000FCCF68C1A0D78091C00087FFFBCF00916F
:10146000C60010E0102F00278091C00087FF66C0E3
:101470008091C600082B8091C00087FF61C09090CA
:10148000C600013021E0120708F089C079E1E72E9B
:1014900071E0F72E5701CC24CA94DC2CD0E0C0E0D8
:1014A0000C171D0709F090C08091C00087FFA3C0F2
:1014B0008091C600803209F0A1C0A3D7E6E49E1255
:1014C0004AC181E043D70091170110911801109291
:1014D000070180910C0181111BC0FFEFCF16DF06C1
:1014E000B9F0C60196958795800F911F90930301DF
:1014F0008093020180E2C0FC88E280930401F6013F
:10150000E75EFE4F80818093050181E080930701B3
:1015100080911101D12CC12C873008F013C19E019C
:1015200036952795822F9CB59B7F9CBDE0E040E4DB
:1015300058E4211171C0E9E1F1E0A0C02CD794CFAB
:101540002AD799CF28D78091C00087FFFBCF809101
:10155000C60021960C171D07B1F78091C00087FFC8
:1015600021C08091C600803201F58091C00085FFC6
:10157000FCCF84E18093C6008091C00085FFFCCF42
:1015800081E18093C600DF91CF911F910F91FF9071
:10159000EF90DF90CF90BF90AF909F900895D0E0F4
:1015A000C0E0D1CFF8D6D9CFF6D68091C00087FF62
:1015B000FBCF8091C6008032C1F78091C00085FFCB
:1015C000FCCF85E1DECFE7D68091C00087FFFBCF5F
:1015D0008091C600D5018D935D01BFEFCB16DB0670
:1015E00041F490911601891721F09091150189130A
:1015F0006E01219655CFCFD657CFCDD68091C00062
:1016000087FFFBCF8091C6008032C1F78091C00078
:1016100085FFFCCFD6CFE92F4EBD0DB407FEFDCF21
:101620001EBC0DB407FEFDCFEEBD0DB407FEFDCF11
:10163000D7019C919EBD0DB407FEFDCF5EBD0DB4DC
:1016400007FEFDCF1EBC0DB407FEFDCFEEBD0DB4F1
:1016500007FEFDCFD70111969C919EBD0DB407FEEC
:10166000FDCF91E09E0FB2E0EB0EF11C8913D3CFBA
:10167000F0E0EE0FFF1FE55EFE4F822FC0FF16C0A9
:1016800090E49EBD0DB407FEFDCF9EB51EBC0DB40B
:1016900007FEFDCF9EB58EBD0DB407FEFDCF8EB506
:1016A00080818EBD0DB407FEFDCF8EB58CE48EBD5E
:1016B0000DB407FEFDCF8EB51EBD0DB407FEFDCFE8
:1016C0008EB50EBD0DB407FEFDCF8EB51EBC0DB49C
:1016D00007FEFDCF8EB5909184008091850089270B
:1016E00098278927909301018093000181E08093DE
:1016F00006012196CE0196958795C0911701D0914C
:101700001801C80FD91FD0931801C09317018091F9
:10171000C00085FFFCCF84E18093C6008091C000AB
:1017200085FFFCCF80E12DCFD7012D917D01A60152
:101730005695479580E4C0FC88E460E07DD5BFEF16
:10174000CB1ADB0ACC15DD0579F720E0402F612F9D
:101750008CE472D5C0CFE5E49E125BC081E0F6D583
:1017600089E1E82E81E0F82EC701895191408C175C
:101770009D0760F08091C00085FFFCCF84E18093DD
:10178000C6008091C00085FFFCCFCCCFD701BD90B3
:101790007D010091170110911801A02E912E2B2D83
:1017A000402F612F80EC48D580918400C090850047
:1017B000DC2CC82E80911401B816F1F08091130131
:1017C000B816D1F020E04A2D692D80EA35D5B8163B
:1017D00061F090918400809185008927982789275E
:1017E0008C199D09823E944068F30F5F1F4F109340
:1017F000180100931701B8CF909184008091850063
:101800008927982789278C199D09823E9440A0F347
:10181000ECCF8091C00085FFFCCF84E18093C600AF
:101820008091C00085FFFCCFABCEB5D5C7CDB3D579
:10183000CBCDB1D5CFCDAFD58091C00087FFFBCF49
:101840008091C6008032C1F78091C00085FFFCCF37
:10185000B8CEA1D58091C00087FFFBCF1091C60004
:101860008091C00087FF33C08091C600803291F51F
:10187000C8D581E06BD5C0911701D0911801212FF7
:101880004C2F6D2F80ECD8D480918400209185005E
:10189000322F282F909184008091850089279827E6
:1018A0008927821B930B823E9440A0F32196D0930C
:1018B0001801C09317018091C00085FFFCCF84E11F
:1018C0008093C6008091C00085FFFCCF2BCF63D5ED
:1018D000C7CF61D58091C00087FFFBCF8091C60044
:1018E0008032C1F78091C00085FFFCCF6ACEDF91C6
:1018F000CF911F910F91FF90EF90DF90CF90BF900D
:10190000AF909F9015C6A89584B7877F84BF88E164
:1019100080936000109260001092800093E090939A
:101920008100109285001092840094E095BD91E0B2
:1019300095BB1092C1001092C5001092C40092E0B5
:101940009093C0008093C10086E08093C200809194
:10195000C00087FD39C010921801109217018FEF57
:1019600080931601109215018093140110921301B7
:101970001092120196E090931101109210011092B2
:101980000F0110920E0110920D0110920C01109295
:101990000B011092060180931B02DCD380E0D6D4A9
:1019A0008091C00087FF13C0C091C60080911B02C8
:1019B000843019F4CFD380E0C9D4C03289F3C7355D
:1019C00040F48C2FDDD5ECCF8091C600C0CFE3D49E
:1019D000E7CF80EA8C0F863018F48C2FDBDCE0CF69
:1019E00080E98C0F893018F48C2F8BDAD9CFA0D5F1
:0619F000D7CFF894FFCFF1
:00000001FF
