:1000000066C080C07FC07EC07DC07CC07BC07AC01F
:1000100079C078C077C098C075C074C073C072C012
:1000200071C070C06FC06EC06DC06CC06BC06AC064
:1000300069C068C0C3C0D3C0E2C0F6C006C116C163
:1000400023C134C145C156C167C177C17FC192C1C7
:10005000B7C1B6C1B8C1B7C1B9C1B8C1BAC1B9C1D8
:10006000C8C1C9C1CAC1CBC1CCC1CDC1D1C12D2D5F
:100070003E204A756E6F20464478494353502056BF
:10008000312E3831202D20466C79616E64616E63AB
:100090006520323032342050726F6772616D6D6549
:1000A00072205346204341203934313333203C2DD4
:1000B0002D2D2D3E20416C6C207269676874732071
:1000C000726573657276656420203C2D2D001124C5
:1000D0001FBECFEFD4E0DEBFCDBF11E0A0E0B1E0A6
:1000E000E8EBF0E102C005900D92A436B107D9F714
:1000F00021E0A4E6B1E001C01D92A936B207E1F704
:100100007DD4D8C77DCF9091C00095FFFCCF809360
:10011000C60008958091C00087FFFCCF8091C60083
:1001200008950F931F93CF938C01C0E0F801EC0F5B
:10013000F11D8081882319F0E6DFCF5FF7CF8AE0D9
:10014000CF911F910F91DFCF1F920F920FB60F9299
:1001500011248F930BB400FE09C08AB58F5F8ABD4E
:100160008AB5873019F48BB58E7F8BBD0BB402FC3A
:1001700012C00BB401FC0BC08EB38F5F8EBB8EB36D
:100180008F3F49F41EBA88E080936000FFCF1EBA0B
:100190008BB58D7F8BBD8F910F900FBE0F901F90F1
:1001A0001895DB01482F50E04E30510508F0F7C09C
:1001B000FA01E65EFF4F8BE48C93099481E311967C
:1001C0008C9311978DE212968C93129713968C93C1
:1001D00013978EE314968C93149784E320C082E3E4
:1001E00011968C9311979DE212969C9312971396F9
:1001F0009C9313979EE314969C93149710C083E3EB
:1002000011968C9311978DE212968C9312971396F8
:100210008C9313978EE314968C93149781E3159621
:100220008C9315978DE4B9C094E311969C93119724
:100230009DE212969C93129795E313969C931397C5
:1002400090E314969C93149791C095E311969C9318
:1002500011972DE212962C93129722E313962C936A
:10026000139714969C93149790E380C096E311968D
:100270009C9311979DE212969C93129791E313968B
:100280009C93139792E331C097E311969C93119737
:100290009DE212969C9312979EE313969C9313975C
:1002A00096E314969C93149792E360C098E311969A
:1002B0009C9311979DE212969C9312979EE313963E
:1002C0009C93139793E314969C93149791E34EC0D9
:1002D00099E311969C9311979DE212969C93129725
:1002E0009EE313969C93139791E314969C93149713
:1002F00095E33CC091E311969C93119790E312967D
:100300009C9312979DE213969C9313979EE31496E9
:100310009C93149798E32AC091E311969C931197AC
:1003200012969C9312979DE213969C9313979EE3CB
:1003300014969C93149794E319C091E311969C939F
:10034000119792E312969C93129708C091E311962D
:100350009C93119723E312962C9312972DE21396F8
:100360002C9313972EE314962C93149715969C9325
:10037000159713C081E311968C93119784E312961D
:100380008C9312979EE313969C93139714968C93D9
:10039000149788E315968C93159716968C93089569
:1003A000CF93DF93EB01FC018181E82FEF708E2F5B
:1003B00090E08830910568F4FC01E85DFF4F0994F6
:1003C00080E290E008C080E490E005C080E890E022
:1003D00002C080E091E099838883DF91CF910895F6
:1003E000482F50E047305105B8F4FA01E05DFF4F67
:1003F000099480E509C080E50CC081E505C081E570
:1004000008C082E501C083E58CBD81E08DBD0BC0D5
:1004100083E58CBD1DBC07C01CBC1DBC873018F01B
:100420008BB5846002C08BB58B7F8BBD0895909196
:100430006801975041E050E002C0440F551F9A9563
:10044000E2F727E030E090E0682F70E0E1E0F0E0D4
:10045000822FDB01022E02C0B595A7950A94E2F720
:10046000A0FF02C02B9A01C02B981C9B06C0DF0185
:1004700001C0AA0F8A95EAF79A2B80E0A82FB0E076
:10048000A417B50734F4AAE2AA95F1F700C08F5F6C
:10049000F5CF2D9A80E0A82FB0E0A417B50734F46B
:1004A000AAE2AA95F1F700C08F5FF5CF2D982150F1
:1004B000310970F6892F08958AE28A95F1F700C014
:1004C00008950F931F93CF93DF938C01C3E0F8013E
:1004D0000BB402FE03C08381AADF06C083818EBDF8
:1004E0000DB407FEFDCF8EB5C11101C0D82FC1508C
:1004F00001501109CF3F59F78D2FDF91CF911F91F7
:100500000F9108950F931F93CF93DF938C01C3E056
:10051000F8010BB402FE03C0838189DF06C083812A
:100520008EBD0DB407FEFDCF8EB5C13009F4D82FB6
:10053000C15001501109CF3F59F78D2FDF91CF9155
:100540001F910F910895FC01349693E082918EBD26
:100550000DB407FEFDCF911101C02EB59150B0F73B
:10056000822F0895FC01349693E082918EBD0DB4E4
:1005700007FEFDCF913009F42EB59150B0F7822FD0
:100580000895FC01349693E0933019F42CB52B7F39
:1005900004C0911103C02CB524602CBD82918EBD86
:1005A0000DB407FEFDCF911101C03EB5915060F72B
:1005B000832F0895E4E6F1E08CEA838383E5828368
:1005C000CF01A0CFE4E6F1E08CEA838380E8828368
:1005D000CF0198CFE4E6F1E080EF838312821182AD
:1005E000CF016FCFE4E6F1E080EF838312821182C6
:1005F000CF01A9CFE4E6F1E09283818380E2838397
:10060000CF015FCFE4E6F1E09283818380E28383D0
:10061000CF0199CFE4E6F1E090E3938312828183E6
:10062000CF014FCFE4E6F1E098E393831282818318
:10063000CF0147CFE4E6F1E080E5838312821182A7
:10064000CF013FCFE4E6F1E088E5838388E0828351
:100650001182CF0136CFE4E6F1E080E5838388E0C4
:1006600082831182CF012DCFE4E6F1E088E5838318
:1006700012821182CF0125CFE4E6F1E0282F21700C
:1006800030E093E0220F331F9A95E1F72064238333
:10069000869590E0928381836083CF0133CFE4E637
:1006A000F1E0282F217030E093E0220F331F9A955C
:1006B000E1F720642383869590E0928381836083B1
:1006C000CF0150CF9091C00097FFFCCF282F217011
:1006D00030E093E0220F331F9A95E1F720642093D6
:1006E0006701869590E09093660180936501809103
:1006F000C6008093640184E691E004CFE4E6F1E073
:100700002CE4238392838183CF01FCCEE4E6F1E0E5
:100710002CE4238392838183CF0124CFCF93DF9373
:10072000C4E6D1E09A83898388E28B83CE01C9DE57
:1007300090E29B83C82FD0E0DC2FCC2784E691E0A9
:10074000C0DE9E01282BC901DF91CF910895CF9380
:10075000DF93C4E6D1E09A83898388E28B83CE015C
:1007600010DF90E29B83C82FD0E0DC2FCC2784E6FB
:1007700091E007DF9E01282BC901DF91CF910895F9
:10078000E4E6F1E020EA238392838183CF0199CECE
:10079000DF92EF92FF920F931F93CF93DF93EC01C1
:1007A000463431F58B0116950795E12CF12C0BB4ED
:1007B00002FE0FC0E016F10641F1C7018C2B9D2B04
:1007C000ADDFD92EA0DC8D2D9EDC8FEFE81AF80A64
:1007D000F1CFE016F106C9F0C7018C2B9D2BB7DFD6
:1007E000D92E91DC8D2D8FDC8FEFE81AF80AF1CF2E
:1007F000453459F48B01080F191FC017D10729F090
:10080000CE01BEDF80DC2196F8CFDF91CF911F9122
:100810000F91FF90EF90DF900895E4E6F1E020EC77
:100820002383928381836083CF016CCE92E0909387
:10083000B00097E09093B100282F30E0A0E4BFE132
:100840002DD4DC01CB012AE0B595A7959795879526
:100850002A95D1F76FEF680F6093B300B99A1092A1
:10086000B200B99BFECF08950F931F93CF93DF93F0
:100870008C01C0E0F8010BB402FE03C08081D7DD1B
:1008800006C080818EBD0DB407FEFDCF8EB5C3308E
:1008900009F4D82FCF5F0F5F1F4FC43059F788E09E
:1008A000C5DF8D2FDF91CF911F910F910895CF93C9
:1008B000E4E6F1E09CEA938390EA928311828083DC
:1008C000CF0120DEC82F88E0B1DF8C2FCF910895B3
:1008D000CF93E4E6F1E09CEA938398EA9283118255
:1008E0008083CF010FDEC82F88E0A0DF8C2FCF914F
:1008F0000895CF93E4E6F1E09CEA938394EA92832F
:1009000011828083CF01FEDDC82F88E08FDF8C2F1E
:10091000CF910895CF93E4E6F1E09CEA938390EEC3
:10092000928311828083CF01EDDDC82F88E07EDFC6
:100930008C2FCF910895CF93DF93EC018881803580
:1009400029F48981811109C075DE3EC0883569F4BA
:100950008981883031F476DE37C08830C1F57BDE9E
:1009600033C0811134C080DE2FC08C3A09F58981F3
:10097000803A31F48FEAC7DB8B81DF91CF9197CF3B
:10098000883A31F48A81BFDB8B81DF91CF91A0CF90
:10099000843A31F48A81B7DB8B81DF91CF91A9CF83
:1009A000803EA9F48A81AFDB8B81DF91CF91B2CFFA
:1009B000883369F48A81882331F0813021F08230D4
:1009C00011F0833021F42EDEDF91CF919CCBDF91AB
:1009D000CF910895A89584B7877F84BFE0E6F0E0C3
:1009E00080818861808310820895F4CF99E0FF2789
:1009F000E82F90935700C895802D0895CF93DF93EB
:100A0000CDB7DEB7CA57D1400FB6F894DEBF0FBEE0
:100A1000CDBFE0DF80E6E4E0F1E0DE01AF5FBE4F96
:100A200001900D928A95E1F784B1877C84B9399859
:100A3000419A1092C40082E08093C00088E18093C4
:100A4000C10086E08093C20010E01EBA80910001D0
:100A500090910101A0910201B0910301C759DE4FAD
:100A600088839983AA83BB83C956D140CE01875915
:100A70009E4F7C01B12C8B2DB9DFF70191917F0145
:100A8000891711F0106404C0B394F4E0BF12F3CFDF
:100A9000EEE6F0E0DE01AF5FBE4F7E018FE9E81ABF
:100AA0008EEFF80A84919D91891711F0106804C0A7
:100AB0003196EA16FB06B1F78BE0809381008CE754
:100AC00090E0909389008093880082E080936F008B
:100AD000789484E085BD84B1836284B985B18362F2
:100AE00085B9CA58DE4F1882C657D140712CF7011C
:100AF0003796C758DE4FF983E883C957D1406DE276
:100B0000662ECE0101962C01A89B1FC0A89A8BB51A
:100B100082608BBD15FD16C073949DE3791202C0EF
:100B2000299813C0EEE37E1669F0F9E77F1202C040
:100B30002D980BC08AE7781208C085B1836285B909
:100B4000712C03C085B1836285B98091C00087FF95
:100B5000FCC18091C600843509F4C0C1B8F4823468
:100B600009F48CC048F48E3209F4CBC08134A9F169
:100B70008B3109F0E3C1E9C1803509F4DCC183356B
:100B800009F4FEC08C3409F0D9C1BFC18736D9F150
:100B900068F4823609F4C9C0853609F4DBC08635AD
:100BA00009F0CCC181E3AFDA88E3C6C1833709F429
:100BB000D5C028F4803709F0C1C183E5BDC18437B1
:100BC00009F482C1863709F0B9C18DE49CDACA58AC
:100BD000DE4F8881C657D140AFC18091C00087FFEA
:100BE000FCCF8091C6009091C00097FFFCCFC090D1
:100BF000C600D12CD82A8091C00085FFFCCF8DE0A3
:100C00008093C600A2C18091C00087FFFCCF809175
:100C1000C6009091C00097FFFCCFA090C6009091B5
:100C2000C00097FFFCCF8090C600B12CB82A11FFFE
:100C300003C086E0FBDD1D7F85B1836085B92998FF
:100C400014FB992490F814FF07C00C3018F481E0CD
:100C5000800F07C0802F05C080916801873008F49D
:100C60008F5FBEDB482DB501C60192DD992011F0E2
:100C7000802F02C080916801B3DB67C18091C00002
:100C800087FFFCCF3091C6008091C00087FFFCCF6A
:100C90008091C6009091C00097FFFCCF2091C600C4
:100CA00090E01C01332A85B1836085B9263499F41C
:100CB000F894F201CF01841995098215930540F447
:100CC0008091C00087FFFCCF8091C6008193F2CF56
:100CD000789411603AC1253409F037C12898809181
:100CE000C00087FFFCCF6091C60056019FEFA91A94
:100CF000B90AC60192DD89E099DD8DE004DA65016B
:100D000024C1FE01E359FE4F9F012C5F3F4FCF01ED
:100D10004091C00047FFFCCF4091C60041932E1781
:100D20003F07B1F7A1DDEFD906C1BE016C587E4F78
:100D3000CE018F589E4F34DB89E5E5D9CB58DE4F85
:100D40008881C557D140DFD9CC58DE4F8881C45740
:100D5000D140F2C037DC8AE069DDEDC0CD58DE4F0E
:100D60008881C357D140CFD9CE58DE4F8881C25732
:100D7000D140C9D9CF58DE4F8881C157D140DCC09E
:100D800084B18C6284B92C9A2D98399A419AB12CED
:100D9000419A81E04BDD419885E048DDB0926801E1
:100DA0008B2D1EDB53E0952EA12C04DC833509F43A
:100DB000A3949A949110F9CFE3E0AE120BC01062A5
:100DC000B7018B2DEED985B1836285B985B18C7F52
:100DD00085B904C0B394FEE0BF12DACF16FF11C08C
:100DE00086E080936801FCDA83E5F70180838183E4
:100DF00062828DE483838FE6848384E6858385E63F
:100E0000868317FF13C0F6E0F093680186E0E8DA06
:100E100086E4F701808397E5918362828EE3838382
:100E200082E4848381E4858384E4868315FD17C08E
:100E30008DE4F701808383E4818395E59283638267
:100E40008EE384839EE4958383E4868384B1877CE8
:100E500084B93998419A1CBC84B1836284B980E01A
:100E6000D9DBCF58DE4F8883C157D14081E0D2DB38
:100E7000CE58DE4F8883C257D14082E0CBDBCD58BD
:100E8000DE4F8883C357D140A5DB137F8E3F11F41B
:100E9000146001C01860812F869586958370805DEF
:100EA000CA58DE4F8883C657D1405701F50181915A
:100EB0005F0129D9C758DE4F88819981C957D14030
:100EC0008A159B0599F741C0BB24B3948B2D1BD980
:100ED000B39490E8B912FACF80E02EC01BD90FEF7F
:100EE000080F0E3080F4106100936801802F78DACB
:100EF00016FD02C017FF1FC0E6E0E093680186E020
:100F00006FDA06E018C01F7E16C01EBA84B1877C57
:100F100084B93998419A1CBC84B1836284B985B183
:100F2000836285B916FF02C010E405C017FF02C036
:100F300010E801C010E08DE0E6D807C08091C00045
:100F400085FFFCCFFFE3F093C60011FF3FC010FF09
:100F50003DC0812F8695869583700BB402FE1CC020
:100F6000813061F437DB80FD02C01D7F2FC00BB4E0
:100F700000FCF8CFFACF0BB400FEF7CFC958DE4F14
:100F80008881C757D140C858DE4F9881C857D14093
:100F900031DB8F3F81F3E9CF813051F423DB80FFD8
:100FA000E4CF0BB400FCFACFE0CF0BB400FEDDCFF2
:100FB000C958DE4F8881C757D140C858DE4F988145
:100FC000C857D1401FDB8F3F81F3CFCF10FF9CCD9F
:100FD00011FD9ACDF8940BB402FC04C0F20180E03C
:100FE00090E026C04201A12CB12C2A143B0449F008
:100FF000F40161914F018A2D3FDBFFEFAF1ABF0A69
:10100000F4CFC6017BDB30C00DB407FEFDCF1EBCA4
:101010000DB407FEFDCF9C01369527952EBD0DB46E
:1010200007FEFDCF21912EBD0DB407FEFDCF019629
:101030002816390641F0282F2170220F220F220F87
:1010400020642EBDE1CF8CE48EBD0DB407FEFDCF34
:10105000DEBC0DB407FEFDCFCEBC0DB407FEFDCF48
:101060001EBC0DB407FEFDCF7894812F8695869522
:101070008370823051F4C958DE4FC882C757D140BF
:10108000C858DE4FD882C857D1408BB581608BBD20
:101090001ABC12601E7F8DE036D836CDA29FB001FB
:1010A000B39FC001A39F01D0B29F700D811D112479
:0810B000911D0895F894FFCF93
:1010B800D2CFFAD52D2D3E204A756E6F2046447842
:1010C800494353502056312E3831202D20466C7913
:1010D800616E64616E636520323032342050726F05
:1010E8006772616D6D657220534620434120393423
:1010F800313333203C2D2D2D2D3E20416C6C207238
:1011080069676874732072657365727665642020F8
:041118003C2D2D003D
:00000001FF
